:020000040800F2
:100000009806002071010008790100087B010008B2
:1000100000000000000000000000000000000000E0
:100020000000000000000000000000007D0100084A
:1000300000000000000000007F0100088D0700089C
:100040008301000883010008830100088301000880
:1000500083010008290600088301000883010008C5
:100060008301000883010008830100088301000860
:100070008301000883010008830100088301000850
:1000800083010008830100080000000083010008CC
:100090008301000883010008830100088301000830
:1000A000830100088301000883010008A9070008F4
:1000B00083010008000000008301000800F002F83E
:1000C00000F047F80CA030C8083824182D18A246B4
:1000D000671EAB4654465D46AC4201D100F039F88C
:1000E0007E460F3E0FCCB6460126334200D0FB1AA7
:1000F000A246AB46334318471C0A00003C0A0000E6
:10010000103A02D378C878C1FAD8520701D330C860
:1001100030C101D504680C60704700000023002442
:1001200000250026103A01D378C1FBD8520700D32E
:1001300030C100D50B6070471FB500F0FBF904001B
:100140000020002100F0CEFC401C60601FBD10B5F7
:1001500010BD00F0CFF91146FFF7EEFF00F020FCD4
:1001600000F0FBF903B4FFF7F2FF03BC00F042FA22
:100170000748804707480047FEE7FEE7FEE7FEE73F
:10018000FEE7FEE704480549054A064B70470000B4
:10019000A5070008BD000008980000209806002070
:1001A000980200209802002070B5064600F0C2F8C0
:1001B0000468054630460A22002100F0BFF82C6092
:1001C00070BD000010B5024A00F0F0F810BD00004C
:1001D00024000020002203098B422CD3030A8B4207
:1001E00011D300239C464EE003460B433CD400222F
:1001F00043088B4231D303098B421CD3030A8B4241
:1002000001D394463FE0C3098B4201D3CB01C01A0E
:10021000524183098B4201D38B01C01A52414309D9
:100220008B4201D34B01C01A524103098B4201D3C7
:100230000B01C01A5241C3088B4201D3CB00C01A34
:10024000524183088B4201D38B00C01A52414308AC
:100250008B4201D34B00C01A5241411A00D20146D1
:100260005241104670475DE0CA0F00D0494203106A
:1002700000D34042534000229C4603098B422DD3B9
:10028000030A8B4212D3FC22890112BA030A8B4261
:100290000CD3890192118B4208D3890192118B42B0
:1002A00004D389013AD0921100E08909C3098B4235
:1002B00001D3CB01C01A524183098B4201D38B0178
:1002C000C01A524143098B4201D34B01C01A52411B
:1002D00003098B4201D30B01C01A5241C3088B4260
:1002E00001D3CB00C01A524183088B4201D38B004B
:1002F000C01A5241D9D243088B4201D34B00C01AD5
:100300005241411A00D20146634652415B101046E9
:1003100001D34042002B00D54942704763465B1031
:1003200000D3404201B50020C046C04602BD704720
:10033000704770470048704738000020F7B50F46F7
:100340000026009C2578641C002D05D000F056F88E
:100350000068405DC007F5D12B2D02D02D2D18D09F
:10036000641E3946029A204600F050F8002F04D04F
:100370003968A14201D10099396071050224002930
:100380000BDA4042002803DDFFF7D4FF0460A0072A
:10039000FEBD012080020643E3E70028F8DAFFF7FC
:1003A000C9FF04600048FEBDFFFFFF7FF8B515469A
:1003B0000E46040003D12C68002C00D10CA420466A
:1003C00000F088F80419207800280ED0274631461E
:1003D000384600F06EF804192078002802D000207A
:1003E0002070641C38462C60F8BD0027FAE7000036
:1003F00000000000004870473800002010B500F0F1
:1004000099F8001D10BD00BFDD060000F7B51546C8
:1004100082B00027029C2078641C0197302802D00B
:10042000002D15D015E020780127641C782804D011
:10043000582802D0002D09D00BE0002D01D0102D3E
:1004400007D1207800271025641C02E0082500E071
:100450000A250026009610E0009901276943081834
:1004600029467143020C80B200908E1838048642EF
:1004700001D3012001902078641C294600F05EF829
:100480000028E9DA0398002805D0002F01D0641E67
:1004900000E0029C04600198002806D0FFF74AFFA4
:1004A00002210160C81E05B0F0BD00993004084368
:1004B000F9E730B503461D78002D03D00A4603E066
:1004C000AC4201D1181A30BD1478521C002CF7D15F
:1004D0005B1CF0E730B503461D78002D08D00A46B6
:1004E0001478521C002C03D0AC42F9D15B1CF3E70A
:1004F000181A30BD7546FFF77DFFAE460500694608
:100500005346C008C000854618B020B5FFF73AFE34
:1005100060BC00274908B6460026C0C5C0C5C0C596
:10052000C0C5C0C5C0C5C0C5C0C5403D49008D4699
:100530007047000000487047580000203A2800D259
:100540003038202302469A43412A01D310463738D7
:10055000884201D30020C043704710B50446C0460E
:10056000C0462046FFF7FEFD10BD0000024670B5F4
:100570000A4392072AD11E4DEE0104C808C9541B34
:100580009443344017D0D0B2D9B2401A2106014367
:1005900010D190B299B2401A210401430AD110023D
:1005A0001902000A090A401A2102014302D1100E61
:1005B000190E401A70BD9A42DFD010BA19BA88429B
:1005C00001D9012070BD0020C04370BD02780B78B6
:1005D000401C491C002A09D09A4207D102780B78A6
:1005E000401C491C002A01D09A42EFD0D01A70BD9D
:1005F0000101010101491820ABBEFEE726000200FF
:10060000704700000649086004E00649097801299E
:1006100000D17047024909680029F6D100BFF8E708
:10062000180000201C00002007484069C007C00FC8
:10063000002808D004484069012108430249486164
:1006400001200249087070470004014000000020AA
:1006500010B51E4840690121490408431B494861FF
:100660000846806901210843184988610920C006AD
:100670000068022108430921C90608600846C068CD
:10068000032108430921C906C86011488068104940
:10069000886010480068012108430E490860084638
:1006A0008068012108430B498860084640690121A0
:1006B000084308494861052000F026F90221052079
:1006C00000F032F900200449087010BD001002400B
:1006D0000000014000040140000000202348406960
:1006E000012189040843214948610846C069022163
:1006F00008431E49C8611E480068891588431C4983
:10070000086008460068012149020843184908604A
:100710000846006A89010843154908627D20800166
:10072000144988620A20486308468069702108439A
:10073000104988610846006A012108430D49086292
:100740000C4840304068C91308430A4940314860AA
:1007500008480068082108430649086008464069BF
:10076000012108430349486170470000001002401E
:1007700000040048000400400349C86209680122DF
:100780001143014A116070470004004004480068AA
:10079000002804D002480068401E014908607047E4
:1007A000180000207047000010B52948C0692021BA
:1007B000084000284AD02648C06988432449C861B7
:1007C0002348203080882349087008460178224851
:1007D00002780078401C204B18702048815418463D
:1007E0000078102832DB0020194608701C491B488D
:1007F000FFF7E8FC1B49086008460068FFF7D4FCD7
:100800001949086016490020FFF7DCFC154908600B
:1008100008460068FFF7C8FC14490860104900202A
:10082000FFF7D0FC0F49086008460068FFF7BCFCE2
:100830000F4908600A490020FFF7C4FC0949086015
:1008400008460068FFF7B0FC0A49086010BD0000C8
:100850000038014003000020010000202800002093
:10086000100B000804000020080000200C000020ED
:10087000100000201400002010B52048406901211C
:10088000490408431D4948610846806901218903DC
:1008900008431A4988610920C00600680521C90477
:1008A00008430921C90608600846406AFF21113142
:1008B00008430921C90648621148C0681149084324
:1008C0000F49C86008460068082108430C490860C1
:1008D0000846006804210843094908600846006882
:1008E00001210843064908600846006820210843A2
:1008F000034908601B2000F007F810BD00100240FB
:100900000038014041030000002809DB00BF00BFA0
:10091000C206D20E01219140024A116000BF00BF01
:100920007047000000E100E010B5002819DB1A4A0A
:1009300003231B02D21883089B00D2588307DC0EC6
:10094000FF23A3409A438B071B0E8407E40EA340AA
:100950001A43114B032424021B198408A4001A51C2
:1009600018E00E4A03071B0F083B9B089B00D25858
:100970008307DC0EFF23A3409A438B071B0E8407DB
:10098000E40EA3401A43054B0407240F083CA408B7
:10099000A4001A5110BD000000E100E01CED00E0D1
:1009A000334840690121C90408433149486131484D
:1009B00000680521090408432E490860084640687C
:1009C0004860084680688860FFF7ECFE7D21C9001A
:1009D00029480068FFF7FEFB0446601E274988424D
:1009E00000D90CE0601E264948610321081FFFF76B
:1009F0009BFF0020224988610720086100BFFFF7A4
:100A00003BFFFFF725FEFFF769FE30E01D48006859
:100A1000002823D0012829D11B480078012812D1B1
:100A200000201949087019480068FFF7EBFD1848C5
:100A30000068FFF7A1FE17480068FFF7E3FD16A066
:100A400000F02EF809E000200A49486113A000F0E8
:100A500027F87D20C000FFF7D5FD07E00FA000F0CC
:100A60001FF87D20C000FFF7CDFD00BF00BFCDE720
:100A7000001002400008004820000020FFFFFF0097
:100A800000E000E008000020000000200C00002032
:100A90001400002010000020310000003000000091
:100AA00010B50346002404E0185D00F00DF8601C4A
:100AB000C4B2185D0028F7D10D2000F005F80A2017
:100AC00000F002F810BD000001E0054A1081044961
:100AD0002039C969402211400029F6D07047000032
:100AE0002038014010B500290AD00878002807D026
:100AF00005487844FFF73AFD002801D0002010BDDA
:100B00000248784410BD0000420000003A00000096
:100B100020000000440C0008000000202800000015
:100B2000000100086C0C000828000020700600007E
:100B30001C0100081001000043000000F8FFFFFF47
:100B400000404040404040404040414141414140E0
:100B50004040404040404040404040404040404095
:100B60004005020202020202020202020202020224
:100B70000220202020202020202020020202020229
:100B80000202909090909090101010101010101081
:100B9000101010101010101010101010020202028D
:100BA00002028888888888880808080808080808D1
:100BB00008080808080808080808080802020202CD
:100BC00040000000000000000000000000000000E5
:100BD0000000000000000000000000000000000015
:100BE0000000000000000000000000000000000005
:100BF00000000000000000000000000000000000F5
:100C000000000000000000000000000000000000E4
:100C100000000000000000000000000000000000D4
:100C200000000000000000000000000000000000C4
:100C300000000000000000000000000000000000B4
:100C400000000000000000000000000000000000A4
:100C50000000000000000000000000000000000094
:0C0C60000000000000127A0000000000FC
:04000005080001717D
:00000001FF
